{
  "transactions": [
    {
      "hash": "0xd4440ec3dffe6b321c5d7d380fbb2f723c17a478094b76855ee6b61326631e39",
      "transactionType": "CALL",
      "contractName": null,
      "contractAddress": "0x1c7d4b196cb0c7b01d743fbc6116a902379c7238",
      "function": "transfer(address,uint256)",
      "arguments": [
        "0x9AC6F9B50fc8B808a1f8f631618F89500ee2DBce",
        "1000000"
      ],
      "transaction": {
        "from": "0x7f248511d4e51a9f3ded64aac7771cd6ffb6360e",
        "to": "0x1c7d4b196cb0c7b01d743fbc6116a902379c7238",
        "gas": "0x14f5f",
        "value": "0x0",
        "input": "0xa9059cbb0000000000000000000000009ac6f9b50fc8b808a1f8f631618f89500ee2dbce00000000000000000000000000000000000000000000000000000000000f4240",
        "nonce": "0x11",
        "chainId": "0xaa36a7"
      },
      "additionalContracts": [],
      "isFixedGasLimit": false
    }
  ],
  "receipts": [
    {
      "status": "0x1",
      "cumulativeGasUsed": "0xc28a80",
      "logs": [
        {
          "address": "0x1c7d4b196cb0c7b01d743fbc6116a902379c7238",
          "topics": [
            "0xddf252ad1be2c89b69c2b068fc378daa952ba7f163c4a11628f55a4df523b3ef",
            "0x0000000000000000000000007f248511d4e51a9f3ded64aac7771cd6ffb6360e",
            "0x0000000000000000000000009ac6f9b50fc8b808a1f8f631618f89500ee2dbce"
          ],
          "data": "0x00000000000000000000000000000000000000000000000000000000000f4240",
          "blockHash": "0x92bb626f8fd705db57d995a75a4e42e088f9ff91dd077f9e10a54d007d454d3e",
          "blockNumber": "0x9dd055",
          "blockTimestamp": "0x69a09830",
          "transactionHash": "0xd4440ec3dffe6b321c5d7d380fbb2f723c17a478094b76855ee6b61326631e39",
          "transactionIndex": "0x47",
          "logIndex": "0xb5",
          "removed": false
        }
      ],
      "logsBloom": "0x00000000000000000000000000000000000000000000000000000000000200000000000000000000000000000000000008000000000000000000000000000000000000000000000000000008000000000000000000000400000000000000000000000000000000000000000000000000000000000000000000000010000000000000000000100000000000000000000008000000004000000000000000000000000000000000000000000000000000000000000000000000000000000000000000000002000000000000004000000000000000000000000000000000000000000000000000000000000010010000000000000000000000000000000000000000",
      "type": "0x2",
      "transactionHash": "0xd4440ec3dffe6b321c5d7d380fbb2f723c17a478094b76855ee6b61326631e39",
      "transactionIndex": "0x47",
      "blockHash": "0x92bb626f8fd705db57d995a75a4e42e088f9ff91dd077f9e10a54d007d454d3e",
      "blockNumber": "0x9dd055",
      "gasUsed": "0xf2cf",
      "effectiveGasPrice": "0xf46ad",
      "from": "0x7f248511d4e51a9f3ded64aac7771cd6ffb6360e",
      "to": "0x1c7d4b196cb0c7b01d743fbc6116a902379c7238",
      "contractAddress": null
    }
  ],
  "libraries": [],
  "pending": [],
  "returns": {},
  "timestamp": 1772132402051,
  "chain": 11155111,
  "commit": "dae6b8e"
}