{
  "transactions": [
    {
      "hash": "0x100af13f996b21e3db30cfd8821e7678ebde8df6cb1fdab49947c4a19eb3d8f0",
      "transactionType": "CALL",
      "contractName": null,
      "contractAddress": "0x24539f784823db3dbec8022b21cab703db916037",
      "function": "setForwarderAddress(address)",
      "arguments": [
        "0x15fC6ae953E024d975e77382eEeC56A9101f9F88"
      ],
      "transaction": {
        "from": "0x7f248511d4e51a9f3ded64aac7771cd6ffb6360e",
        "to": "0x24539f784823db3dbec8022b21cab703db916037",
        "gas": "0x973b",
        "value": "0x0",
        "input": "0xd777cc6d00000000000000000000000015fc6ae953e024d975e77382eeec56a9101f9f88",
        "nonce": "0x1c",
        "chainId": "0xaa36a7"
      },
      "additionalContracts": [],
      "isFixedGasLimit": false
    },
    {
      "hash": "0x0dba2d360598423552417cc78f62732c69d9461c280a4a23414c8ed43c58534f",
      "transactionType": "CALL",
      "contractName": null,
      "contractAddress": "0x24539f784823db3dbec8022b21cab703db916037",
      "function": "allowlistDestinationChain(uint64,bool)",
      "arguments": [
        "16015286601757825753",
        "true"
      ],
      "transaction": {
        "from": "0x7f248511d4e51a9f3ded64aac7771cd6ffb6360e",
        "to": "0x24539f784823db3dbec8022b21cab703db916037",
        "gas": "0xfac8",
        "value": "0x0",
        "input": "0x96d3b83d000000000000000000000000000000000000000000000000de41ba4fc9d91ad90000000000000000000000000000000000000000000000000000000000000001",
        "nonce": "0x1d",
        "chainId": "0xaa36a7"
      },
      "additionalContracts": [],
      "isFixedGasLimit": false
    },
    {
      "hash": "0xaf430d5a578d4ca1b51bafdd775af3271ad5e36c8c6785263a03554ff36d3156",
      "transactionType": "CALL",
      "contractName": null,
      "contractAddress": "0x24539f784823db3dbec8022b21cab703db916037",
      "function": "allowlistDestinationChain(uint64,bool)",
      "arguments": [
        "5224473277236331295",
        "true"
      ],
      "transaction": {
        "from": "0x7f248511d4e51a9f3ded64aac7771cd6ffb6360e",
        "to": "0x24539f784823db3dbec8022b21cab703db916037",
        "gas": "0xfac8",
        "value": "0x0",
        "input": "0x96d3b83d00000000000000000000000000000000000000000000000048810ec3e431431f0000000000000000000000000000000000000000000000000000000000000001",
        "nonce": "0x1e",
        "chainId": "0xaa36a7"
      },
      "additionalContracts": [],
      "isFixedGasLimit": false
    },
    {
      "hash": "0x451d5042bd84c55d0dde52f494b9669ebfb666f7fd57994b65571f7db304fdf7",
      "transactionType": "CALL",
      "contractName": null,
      "contractAddress": "0x24539f784823db3dbec8022b21cab703db916037",
      "function": null,
      "arguments": null,
      "transaction": {
        "from": "0x7f248511d4e51a9f3ded64aac7771cd6ffb6360e",
        "to": "0x24539f784823db3dbec8022b21cab703db916037",
        "gas": "0x7199",
        "value": "0x16345785d8a0000",
        "input": "0x",
        "nonce": "0x1f",
        "chainId": "0xaa36a7"
      },
      "additionalContracts": [],
      "isFixedGasLimit": false
    }
  ],
  "receipts": [
    {
      "status": "0x1",
      "cumulativeGasUsed": "0x1ff6ba6",
      "logs": [
        {
          "address": "0x24539f784823db3dbec8022b21cab703db916037",
          "topics": [
            "0x039ad854736757070884dd787ef1a7f58db33546639d1f3efddcf4a33fb8997e",
            "0x00000000000000000000000015fc6ae953e024d975e77382eeec56a9101f9f88",
            "0x00000000000000000000000015fc6ae953e024d975e77382eeec56a9101f9f88"
          ],
          "data": "0x",
          "blockHash": "0xf281977db7176bfbe59511f65943123d690ce2afbf654731334910fec2150f78",
          "blockNumber": "0x9e169a",
          "blockTimestamp": "0x69a3fe00",
          "transactionHash": "0x0dba2d360598423552417cc78f62732c69d9461c280a4a23414c8ed43c58534f",
          "transactionIndex": "0x94",
          "logIndex": "0x20b",
          "removed": false
        }
      ],
      "logsBloom": "0x00000000400000000000000000000000000000000000000002000000002000000000000000000000000000000000000000000000000000000000000000000000000000000000000000000000000000000000000000000000000000000000000002000000000000000000000000000000000000000000000000000000000000000000000000000000000000000000000000000000000000000000000000000000000000000000000000000000000000000004000000000000000000020000000000000000000000000000000000000000000000000004000000000000000000000000000000000000000000000000000000000000000200000000000000080000",
      "type": "0x0",
      "transactionHash": "0x0dba2d360598423552417cc78f62732c69d9461c280a4a23414c8ed43c58534f",
      "transactionIndex": "0x94",
      "blockHash": "0xf281977db7176bfbe59511f65943123d690ce2afbf654731334910fec2150f78",
      "blockNumber": "0x9e169a",
      "gasUsed": "0x6d7e",
      "effectiveGasPrice": "0xf425c",
      "from": "0x7f248511d4e51a9f3ded64aac7771cd6ffb6360e",
      "to": "0x24539f784823db3dbec8022b21cab703db916037",
      "contractAddress": null
    },
    {
      "status": "0x1",
      "cumulativeGasUsed": "0x2002136",
      "logs": [],
      "logsBloom": "0x00000000000000000000000000000000000000000000000000000000000000000000000000000000000000000000000000000000000000000000000000000000000000000000000000000000000000000000000000000000000000000000000000000000000000000000000000000000000000000000000000000000000000000000000000000000000000000000000000000000000000000000000000000000000000000000000000000000000000000000000000000000000000000000000000000000000000000000000000000000000000000000000000000000000000000000000000000000000000000000000000000000000000000000000000000000",
      "type": "0x0",
      "transactionHash": "0x100af13f996b21e3db30cfd8821e7678ebde8df6cb1fdab49947c4a19eb3d8f0",
      "transactionIndex": "0x95",
      "blockHash": "0xf281977db7176bfbe59511f65943123d690ce2afbf654731334910fec2150f78",
      "blockNumber": "0x9e169a",
      "gasUsed": "0xb590",
      "effectiveGasPrice": "0xf425c",
      "from": "0x7f248511d4e51a9f3ded64aac7771cd6ffb6360e",
      "to": "0x24539f784823db3dbec8022b21cab703db916037",
      "contractAddress": null
    },
    {
      "status": "0x1",
      "cumulativeGasUsed": "0x200d6c6",
      "logs": [],
      "logsBloom": "0x00000000000000000000000000000000000000000000000000000000000000000000000000000000000000000000000000000000000000000000000000000000000000000000000000000000000000000000000000000000000000000000000000000000000000000000000000000000000000000000000000000000000000000000000000000000000000000000000000000000000000000000000000000000000000000000000000000000000000000000000000000000000000000000000000000000000000000000000000000000000000000000000000000000000000000000000000000000000000000000000000000000000000000000000000000000",
      "type": "0x0",
      "transactionHash": "0xaf430d5a578d4ca1b51bafdd775af3271ad5e36c8c6785263a03554ff36d3156",
      "transactionIndex": "0x96",
      "blockHash": "0xf281977db7176bfbe59511f65943123d690ce2afbf654731334910fec2150f78",
      "blockNumber": "0x9e169a",
      "gasUsed": "0xb590",
      "effectiveGasPrice": "0xf425c",
      "from": "0x7f248511d4e51a9f3ded64aac7771cd6ffb6360e",
      "to": "0x24539f784823db3dbec8022b21cab703db916037",
      "contractAddress": null
    },
    {
      "status": "0x1",
      "cumulativeGasUsed": "0x2012905",
      "logs": [],
      "logsBloom": "0x00000000000000000000000000000000000000000000000000000000000000000000000000000000000000000000000000000000000000000000000000000000000000000000000000000000000000000000000000000000000000000000000000000000000000000000000000000000000000000000000000000000000000000000000000000000000000000000000000000000000000000000000000000000000000000000000000000000000000000000000000000000000000000000000000000000000000000000000000000000000000000000000000000000000000000000000000000000000000000000000000000000000000000000000000000000",
      "type": "0x0",
      "transactionHash": "0x451d5042bd84c55d0dde52f494b9669ebfb666f7fd57994b65571f7db304fdf7",
      "transactionIndex": "0x97",
      "blockHash": "0xf281977db7176bfbe59511f65943123d690ce2afbf654731334910fec2150f78",
      "blockNumber": "0x9e169a",
      "gasUsed": "0x523f",
      "effectiveGasPrice": "0xf425c",
      "from": "0x7f248511d4e51a9f3ded64aac7771cd6ffb6360e",
      "to": "0x24539f784823db3dbec8022b21cab703db916037",
      "contractAddress": null
    }
  ],
  "libraries": [],
  "pending": [],
  "returns": {},
  "timestamp": 1772355073968,
  "chain": 11155111,
  "commit": "dae6b8e"
}