{
  "transactions": [
    {
      "hash": "0xe20b4f3d719fb18455fa572914dd1aca6c3ccb2deed0561de6b2493d5d48083a",
      "transactionType": "CALL",
      "contractName": "Vault",
      "contractAddress": "0x631c0440d166e19fa1f4f6196491dfb730b468d3",
      "function": "setForwarderAddress(address)",
      "arguments": [
        "0xA2888380dFF3704a8AB6D1CD1A8f69c15FEa5EE3"
      ],
      "transaction": {
        "from": "0x7f248511d4e51a9f3ded64aac7771cd6ffb6360e",
        "to": "0x631c0440d166e19fa1f4f6196491dfb730b468d3",
        "gas": "0x973b",
        "value": "0x0",
        "input": "0xd777cc6d000000000000000000000000a2888380dff3704a8ab6d1cd1a8f69c15fea5ee3",
        "nonce": "0x1f",
        "chainId": "0xaa37dc"
      },
      "additionalContracts": [],
      "isFixedGasLimit": false
    },
    {
      "hash": "0xdcec64bf757e2ba56ed9ff91d964ac1fbaf66454c19518a9167204bc1d55cd19",
      "transactionType": "CALL",
      "contractName": "Vault",
      "contractAddress": "0x631c0440d166e19fa1f4f6196491dfb730b468d3",
      "function": "allowlistDestinationChain(uint64,bool)",
      "arguments": [
        "16015286601757825753",
        "true"
      ],
      "transaction": {
        "from": "0x7f248511d4e51a9f3ded64aac7771cd6ffb6360e",
        "to": "0x631c0440d166e19fa1f4f6196491dfb730b468d3",
        "gas": "0xfac8",
        "value": "0x0",
        "input": "0x96d3b83d000000000000000000000000000000000000000000000000de41ba4fc9d91ad90000000000000000000000000000000000000000000000000000000000000001",
        "nonce": "0x20",
        "chainId": "0xaa37dc"
      },
      "additionalContracts": [],
      "isFixedGasLimit": false
    },
    {
      "hash": "0x847764987423431067260bd4136513a0f52efced05cebfe088a172e578d6dccb",
      "transactionType": "CALL",
      "contractName": "Vault",
      "contractAddress": "0x631c0440d166e19fa1f4f6196491dfb730b468d3",
      "function": "allowlistDestinationChain(uint64,bool)",
      "arguments": [
        "5224473277236331295",
        "true"
      ],
      "transaction": {
        "from": "0x7f248511d4e51a9f3ded64aac7771cd6ffb6360e",
        "to": "0x631c0440d166e19fa1f4f6196491dfb730b468d3",
        "gas": "0xfac8",
        "value": "0x0",
        "input": "0x96d3b83d00000000000000000000000000000000000000000000000048810ec3e431431f0000000000000000000000000000000000000000000000000000000000000001",
        "nonce": "0x21",
        "chainId": "0xaa37dc"
      },
      "additionalContracts": [],
      "isFixedGasLimit": false
    },
    {
      "hash": "0xbfdde35fd77f1ad3f8c4b781124a704c8605310a6e75dd975b75165fdbb232ba",
      "transactionType": "CALL",
      "contractName": null,
      "contractAddress": "0x631c0440d166e19fa1f4f6196491dfb730b468d3",
      "function": null,
      "arguments": null,
      "transaction": {
        "from": "0x7f248511d4e51a9f3ded64aac7771cd6ffb6360e",
        "to": "0x631c0440d166e19fa1f4f6196491dfb730b468d3",
        "gas": "0x7199",
        "value": "0x16345785d8a0000",
        "input": "0x",
        "nonce": "0x22",
        "chainId": "0xaa37dc"
      },
      "additionalContracts": [],
      "isFixedGasLimit": false
    }
  ],
  "receipts": [
    {
      "status": "0x1",
      "cumulativeGasUsed": "0x121cc",
      "logs": [
        {
          "address": "0x631c0440d166e19fa1f4f6196491dfb730b468d3",
          "topics": [
            "0x039ad854736757070884dd787ef1a7f58db33546639d1f3efddcf4a33fb8997e",
            "0x000000000000000000000000a2888380dff3704a8ab6d1cd1a8f69c15fea5ee3",
            "0x000000000000000000000000a2888380dff3704a8ab6d1cd1a8f69c15fea5ee3"
          ],
          "data": "0x",
          "blockHash": "0x01787f07475372b8f6644f5887b2586b891259588c5e1932c18a66cb42e38916",
          "blockNumber": "0x2669006",
          "blockTimestamp": "0x69a3fbb8",
          "transactionHash": "0xe20b4f3d719fb18455fa572914dd1aca6c3ccb2deed0561de6b2493d5d48083a",
          "transactionIndex": "0x1",
          "logIndex": "0x0",
          "removed": false
        }
      ],
      "logsBloom": "0x00000000000000000000000000000000000001000000000002000000002000000000000000000000000000000000000000000000000000000000000000000000000000000000000000000000000000008000000000000000000010000000000000000000000000008000000000000000000000000000000000000000000000000100000000000000000000000000000000000000000000000000000000000000000000000000000000000000000000000000000000000000000000000000000000000000000000000000000000000000000000000040000000000000000000000000000000000000000000000000000000000000000000000000000000080000",
      "type": "0x0",
      "transactionHash": "0xe20b4f3d719fb18455fa572914dd1aca6c3ccb2deed0561de6b2493d5d48083a",
      "transactionIndex": "0x1",
      "blockHash": "0x01787f07475372b8f6644f5887b2586b891259588c5e1932c18a66cb42e38916",
      "blockNumber": "0x2669006",
      "gasUsed": "0x6d7e",
      "effectiveGasPrice": "0xf433a",
      "blobGasUsed": "0x9c40",
      "from": "0x7f248511d4e51a9f3ded64aac7771cd6ffb6360e",
      "to": "0x631c0440d166e19fa1f4f6196491dfb730b468d3",
      "contractAddress": null,
      "daFootprintGasScalar": "0x190",
      "l1BaseFeeScalar": "0x1db0",
      "l1BlobBaseFee": "0x1",
      "l1BlobBaseFeeScalar": "0xd2730",
      "l1Fee": "0x19e",
      "l1GasPrice": "0x1b",
      "l1GasUsed": "0x640"
    },
    {
      "status": "0x1",
      "cumulativeGasUsed": "0x1d75c",
      "logs": [],
      "logsBloom": "0x00000000000000000000000000000000000000000000000000000000000000000000000000000000000000000000000000000000000000000000000000000000000000000000000000000000000000000000000000000000000000000000000000000000000000000000000000000000000000000000000000000000000000000000000000000000000000000000000000000000000000000000000000000000000000000000000000000000000000000000000000000000000000000000000000000000000000000000000000000000000000000000000000000000000000000000000000000000000000000000000000000000000000000000000000000000",
      "type": "0x0",
      "transactionHash": "0x847764987423431067260bd4136513a0f52efced05cebfe088a172e578d6dccb",
      "transactionIndex": "0x2",
      "blockHash": "0x01787f07475372b8f6644f5887b2586b891259588c5e1932c18a66cb42e38916",
      "blockNumber": "0x2669006",
      "gasUsed": "0xb590",
      "effectiveGasPrice": "0xf433a",
      "blobGasUsed": "0x9c40",
      "from": "0x7f248511d4e51a9f3ded64aac7771cd6ffb6360e",
      "to": "0x631c0440d166e19fa1f4f6196491dfb730b468d3",
      "contractAddress": null,
      "daFootprintGasScalar": "0x190",
      "l1BaseFeeScalar": "0x1db0",
      "l1BlobBaseFee": "0x1",
      "l1BlobBaseFeeScalar": "0xd2730",
      "l1Fee": "0x19e",
      "l1GasPrice": "0x1b",
      "l1GasUsed": "0x640"
    },
    {
      "status": "0x1",
      "cumulativeGasUsed": "0x28cec",
      "logs": [],
      "logsBloom": "0x00000000000000000000000000000000000000000000000000000000000000000000000000000000000000000000000000000000000000000000000000000000000000000000000000000000000000000000000000000000000000000000000000000000000000000000000000000000000000000000000000000000000000000000000000000000000000000000000000000000000000000000000000000000000000000000000000000000000000000000000000000000000000000000000000000000000000000000000000000000000000000000000000000000000000000000000000000000000000000000000000000000000000000000000000000000",
      "type": "0x0",
      "transactionHash": "0xdcec64bf757e2ba56ed9ff91d964ac1fbaf66454c19518a9167204bc1d55cd19",
      "transactionIndex": "0x3",
      "blockHash": "0x01787f07475372b8f6644f5887b2586b891259588c5e1932c18a66cb42e38916",
      "blockNumber": "0x2669006",
      "gasUsed": "0xb590",
      "effectiveGasPrice": "0xf433a",
      "blobGasUsed": "0x9c40",
      "from": "0x7f248511d4e51a9f3ded64aac7771cd6ffb6360e",
      "to": "0x631c0440d166e19fa1f4f6196491dfb730b468d3",
      "contractAddress": null,
      "daFootprintGasScalar": "0x190",
      "l1BaseFeeScalar": "0x1db0",
      "l1BlobBaseFee": "0x1",
      "l1BlobBaseFeeScalar": "0xd2730",
      "l1Fee": "0x19e",
      "l1GasPrice": "0x1b",
      "l1GasUsed": "0x640"
    },
    {
      "status": "0x1",
      "cumulativeGasUsed": "0x2df2b",
      "logs": [],
      "logsBloom": "0x00000000000000000000000000000000000000000000000000000000000000000000000000000000000000000000000000000000000000000000000000000000000000000000000000000000000000000000000000000000000000000000000000000000000000000000000000000000000000000000000000000000000000000000000000000000000000000000000000000000000000000000000000000000000000000000000000000000000000000000000000000000000000000000000000000000000000000000000000000000000000000000000000000000000000000000000000000000000000000000000000000000000000000000000000000000",
      "type": "0x0",
      "transactionHash": "0xbfdde35fd77f1ad3f8c4b781124a704c8605310a6e75dd975b75165fdbb232ba",
      "transactionIndex": "0x4",
      "blockHash": "0x01787f07475372b8f6644f5887b2586b891259588c5e1932c18a66cb42e38916",
      "blockNumber": "0x2669006",
      "gasUsed": "0x523f",
      "effectiveGasPrice": "0xf433a",
      "blobGasUsed": "0x9c40",
      "from": "0x7f248511d4e51a9f3ded64aac7771cd6ffb6360e",
      "to": "0x631c0440d166e19fa1f4f6196491dfb730b468d3",
      "contractAddress": null,
      "daFootprintGasScalar": "0x190",
      "l1BaseFeeScalar": "0x1db0",
      "l1BlobBaseFee": "0x1",
      "l1BlobBaseFeeScalar": "0xd2730",
      "l1Fee": "0x19e",
      "l1GasPrice": "0x1b",
      "l1GasUsed": "0x640"
    }
  ],
  "libraries": [],
  "pending": [],
  "returns": {},
  "timestamp": 1772354490003,
  "chain": 11155420,
  "commit": "dae6b8e"
}